:020000040000fa
:080000000002040000000000f2
:020000040000fa
:100400004f182400007f2400000188000000000035
:100410000c00070080ed2f000100200011000700f4
:10042000000020000000e000020032000000020096
:100430000000000058ea0200000000000040da005e
:100440000000fe004440a900409920000000e000a8
:100450000300320000002000a00188004440a800f2
:100460000000060091018800800078000000eb0089
:1004700015003700e280400032a0b4009101ba00bc
:10048000e280400032a0b4009102ba00e280400055
:1004900032a0b4000002eb00472bde00f507b200eb
:1004a000602ce10004003a000059eb008301e900f0
:1004b000fdff3e00040037006128e100010032002a
:1004c0000082eb00040007001101ba000200e00006
:1004d000e8ff3a00000006003159ba008301e90044
:1004e0000c0032002159ba008301e90008003200f3
:1004f0000400e00003003a00e280400032a0b400b3
:10050000f5ff370011d9ba008301e900faff3a007c
:100510008100e800e180400032a0b4000000060045
:100520001851040001000000b0ea040000000000bf
:1005300084d504000000000076d404000000000010
:1005400096d404000000000092d5040000000000d2
:100550009ed5040000000000acd4040000000000a0
:1005600078d5040000000000d4e50400000000007d
:1005700030e204000000000040e40400000000003d
:1005800098e00400000000001edf040000000000ee
:100590007ae20400000000005ae3040000000000ba
:1005a000e8df04000000000022e504000000000075
:1005b0008ce604000000000044310400010000004b
:1005c000f231040001000000de32040001000000ee
:1005d00044330400010000005e3304000100000009
:1005e00076330400010000003634040001000000ee
:1005f000dc5d0400010000009eed0400000000002e
:10060000c2f20400000000004cef040000000000f3
:100610000ef904000000000030ad040000000000ee
:100620009862040001000000ae62040001000000b6
:10063000d462040001000000f66204000100000022
:100640002408040000000000ae07040000000000c1
:10065000964b040001000000304c04000100000033
:100660006e4c040001000000ae4c040001000000cc
:10067000524d0400010000009a180400010000001f
:10068000ea29040001000000462a040001000000dd
:10069000ea2b0400010000002c2c040001000000e3
:1006a0007c2a0400010000005e0704000000000036
:1006b000c8080400000000003200f8009101880022
:1006c000023b88000008bb000500fc00510520002b
:1006d000313b8800a10a2000313b880061e7a80077
:1006e00000000000000000003200f90000000600d9
:1006f0000400a100010037000400a0003200f8004f
:100700009101880011002400013b8800f10f2000b6
:100710003208bb000400a700b20078000198bb00bb
:100720008301e900faff3a00680151000400a700c4
:1007300068015100680050001208bb00e2ff37005a
:10074000f30f20003200f8009101880031002400ee
:10075000013b88000208bb000388bb00daff3700ba
:100760003200f800003b8800d7ff37008001eb0023
:1007700002003700817178008301e800828f510008
:10078000fcff3a0000000600889fbe000004be0087
:10079000c0b381000000e000010032000000010051
:1007a0000800e00001003a00b8b381000800be0074
:1007b000ad020700000444001804e00004003a0001
:1007c000a0672300b0b389000004eb0007003700e6
:1007d0000800be00b6020700000044001004e0005c
:1007e000010032000058eb00b0b389000800780027
:1007f0004f04be0000000600800178000001780070
:1008000031407800005978000004e000fcff3a0015
:100810000300780000000600800078000100370027
:100820000000e8001004e000fdff3a000100500065
:100830000000060080017800000178000100370008
:100840000201e8001204e000fdff3a000200370058
:100850000201e8008100e8001140780000497800ba
:100860000004e000faff3a000300780000000600f0
:10087000ec874700889fbe008a9fbe008c9fbe0009
:100880008e1f7800f0b79f0081bf9f008204780020
:1008900000047800010037000804e80018477800d9
:1008a0000e00fb00940207000000e000faff3a008f
:1008b000d0c2b300804f57000500320000c0e900ed
:1008c000804f5700020032000047780001003700d7
:1008d0000804e8000900e00045003500e18f5400fd
:1008e0004300320040022000808f540040003c0052
:1008f0000900e0000e003400f08f54001a003a00a6
:1009000000c3b300984f100016003a0098409000c2
:1009100080c7b30080cf50000300320080c5b30011
:1009200080cf50000f003a000884e8000e00370026
:10093000a900200000c3b300984f10000a003a003d
:100940009840900080c7b30080cf50000400320070
:100950008900200080c5b30080cf500002003a001b
:100960000884e800090120000805780000c3b300ee
:10097000010037000a05e8009a4f1000fdff320021
:100980008a0578006066b8000e0037005025230005
:1009900000425200c4ef9f006149b9000c00be0044
:1009a000081407004fea97000401fb00cf91de0016
:1009b0008b05e800ccb79f00ddb79f000006410023
:1009c000818649001b00fb00980107008000780029
:1009d00009017800502523004f020700000278002b
:1009e0000000e000e9ff3a008b0f540006003a00d7
:1009f0000fb897000000e00029003200ffb0970018
:100a000001087800260037008a8055000023230063
:100a100060c07c000000fb00008050001600330026
:100a20004240a9000f003c004fe997000200fb0084
:100a3000cf80de000000560081805e00800f5600ef
:100a4000818f5e00070039006149b9000814070072
:100a50004fb19700dfb19700820f5000838f58008d
:100a60000500320020022000c0b189000086eb00a2
:100a70008086eb0005003700d0c2b300804f5700de
:100a800002003a0060061600e0861e008fb997004b
:100a90000300e000030032008b09780001003700fa
:100aa0006066b8000c00be004f0778004f06be001d
:100ab0004f05be004f04be00cf00b100000006008d
:100ac000881f7800b0af81000000e0000100320014
:100ad0000000010080af81000000e0000100320052
:100ae00000000100608681000000e000010032008b
:100af00000000100308681000000e00001003200ab
:100b000000000100805f23001004e00026003a008e
:100b100090af8100a1af81000004eb00d2602600fd
:100b200093012000a7130700f2352f00e3c623002e
:100b300000004100818049000804e800e80f5400eb
:100b4000f6ff3a0090af8900a1af8900e80c2300be
:100b5000d26026009301200090af8100a1af8100f8
:100b600098130700f2352f00e3c623000000410070
:100b70008180490090af8900a1af8900009cbe0030
:100b8000e0142300800f5400f1ff3a00508a8100e6
:100b9000618a8100408689005186890011c0b300b6
:100ba000805f230001487800d26026009301200076
:100bb00090af8100a1af810082130700f2352f00b2
:100bc000e3c62300000041008180490090af890006
:100bd000a1af8900820c2300120178007f0161001f
:100be0004211dd00e30c2300030141001202be00ac
:100bf00044868900558689000089be0040868100b0
:100c0000518681004008de0000f0a1004f0478000a
:100c100000000600881f780000047800b0af810053
:100c20000000e0000100320000000100805f2300ae
:100c30000048eb0080af81000000e00001003200be
:100c4000000001006140b80090af8900a1af8900a9
:100c50004f047800000006008001eb000800370018
:100c6000e342780063c278008301e80084cf520039
:100c7000030032000080eb00040039001000050082
:100c8000828f5100f6ff3a000000eb0000000600e2
:100c9000040037000204e0000a0032000000e8000f
:100ca0008100e80010417800914f5100f9ff3200b7
:100cb0000081eb0010407800914f50000400390093
:100cc000020037000001eb00010037001200200095
:100cd00002007800000006008001eb0002003700ef
:100ce00061f079008301e800828f5100fcff3a0037
:100cf00000000600040037000204e00001003a0092
:100d0000000005000000e80010417800814f51000c
:100d1000f9ff3a0000000600889fbe0081047800b9
:100d2000114478000804e00009003a000c00370084
:100d30008001780009017800d24078000104e000c9
:100d400007003200d3cf1000fbff32000000e800a4
:100d50008800fb00e7ff07000000e000f4ff3a0016
:100d60004f04be00000006000e00fa00889fbe007f
:100d70008a9fbe008c1f7800a0bf9f0001047800ee
:100d80000205be00800478006c80570072010700e5
:100d9000680660000030a100e10f500014003a0026
:100da000afb8970000027800f4815700080178007e
:100db00009007800ed0107000000e00002003a00a1
:100dc0006000b800030037000fb897009fb8970085
:100dd00096130700c0b79f00d1b79f006fb197006f
:100de000ffb197000a0141008b81490016003700ce
:100df000e20f500018003a00afb89700140020002e
:100e0000f48157000801780009007800b902070052
:100e10000000e00002003a006000b8000300370064
:100e20000fb897009fb8970080130700c0b79f00c6
:100e3000d1b79f006fb19700ffb19700788057003e
:100e4000a10307000a01be004fb09700dfb0970072
:100e50000d0407000d003700e30f500003003a00b7
:100e60000000200001f8270004003700e40f5000c4
:100e700005003a00f0ff2f00f1ff2700c0b79f00e8
:100e8000d1b79f00030037006000b800c0b79f00d3
:100e9000d1b79f004fb09700dfb097000c00e00083
:100ea0000100320001f0a2004f0678004f05be009d
:100eb0004f04be000080fa0000000600881f780082
:100ec0000204780084ff0700080040004f04780007
:100ed000000006000000fa00881f78000004780077
:100ee0003fb99700ea81570080007800e075200044
:100ef0005c040700800078000000e000020035007c
:100f00000040eb0000f47800010078004f04780006
:100f10000080fa0000000600800178008002eb00eb
:100f2000010037008459780005035100828f520078
:100f30000900320065c278008502e8000404e00080
:100f4000f8ff3a0083007800068141008058eb00ea
:100f5000828f5000fdff3a00000006000000e00014
:100f6000310032008080e90091027800e38f520066
:100f70002d0036000508a3002b003a0002b18100c5
:100f80000200e00002003200828f500004003100b5
:100f90000208780001b189001600370003017800cb
:100fa000920190000300e00002003200818f5100a6
:100fb000faff39001202780004004100808f5000cf
:100fc00019003900810f500003003a000509420062
:100fd00082007800070037000300e00003003200c1
:100fe00005804000808f51000f0039009300980069
:100ff00011019800110190000200e0000a00320087
:1010000011804000820f500007003a00e061230089
:101010000008eb00110090001101780090084100d9
:1010200010009000900098000000060080007800fa
:101030001104b100030035009101b10001003c0032
:101040000050a00000000600889fbe00e30440009e
:101050000900a100808f54004a003600e38f54003d
:1010600001003e0049002000f2b081000200e000d3
:1010700002003200820078000c0037000162230079
:1010800003003700908f5400230036008080e80072
:10109000110078000000e000faff3a000f0037006e
:1010a000908f54001c0036008080e800110078000a
:1010b0000000e000faff3a0012017800016223000c
:1010c00003003700908f5400130036008080e80042
:1010d00011007800820f5000faff3a00e8b081005a
:1010e000890f5400010031000904780008007800dd
:1010f000950407000000e00004003a00890f540046
:10110000200032000804d100f5ff370008187800ed
:1011100092ff0700d4ff3700110178009201780098
:1011200064805100890f50000300310012009000cc
:101130008008780007003700090041008008780027
:10114000920190001300980011007800128814009a
:1011500009097800910078000100e00005003200e4
:10116000110090000000e000020032000180e80061
:10117000010037000000eb00f0b089000280e800b9
:10118000010037000000eb004f04be000000060025
:10119000900178000200e00002003a000308e90034
:1011a000050037008080eb001304e00002003200ed
:1011b0000308e8009300fb0001007800000006002f
:1011c0000200fa00f0bf9f003fb99700ea81570084
:1011d0008f80e900808c2000620407000080fa0004
:1011e00000000600000278000000eb000b00370052
:1011f0009441780091cf5100030032000080eb0051
:1012000009003900100005000000e8000304e000b8
:10121000040032000402e8008100e800820f500060
:10122000f3ff3a000000eb0000000600881f780082
:101230008a9fbe000185b9000a00780082ff07007e
:10124000000478000000e000030032000a0178008a
:101250008000eb0045fd0700080078004f05be0048
:101260004f04780000000600000278000b003700f1
:1012700001017800924178000304e00002003a0086
:10128000040050000000060083cf5200020032002c
:101290000201e800f7ff37000000e8009042780004
:1012a0000504e000f2ff3a000400500000000600d0
:1012b000000278000700370083cf52000a00320096
:1012c0000201e800924178000304e000faff3a00ce
:1012d0000000e800904278000504e00004003200bd
:1012e00001017800f7ff37000400500000000600fd
:1012f00004005000000006006900e1000400350011
:101300006d00e100030034000002b1000100320072
:1013100000000500100005008001eb00040037000c
:101320008301e80090cf1000040032000000e800c4
:10133000828f5100faff3a000000eb000000060027
:10134000b0b181000000e0000100320000000100a7
:101350008063230000000600889fbe008a9fbe00b5
:101360008c1f780000067800810578001005780051
:101370000a047800010037000804e8009844780067
:101380000900fb00dcff0700800078000000e0009f
:10139000f9ff3a00d0c2b30080cf540003003a00f6
:1013a0000804e8008200200005003700b0c2b30046
:1013b00080cf540001003a000804e80001017800e1
:1013c00098407800e5c6b30085cf50000300320096
:1013d000e3c4b30083cf500022003a00984090004d
:1013e00010c6b30080cf50000300320010c4b30019
:1013f00080cf500050003a00a840900085cf5000a8
:1014000003003200e0c4b30080cf50004a003a002d
:101410006305440080c2b3009a4f100002003200fe
:101420000a047800090037000a047800d8447800dc
:101430000900fb00620507000000e000fbff3a0026
:10144000f0c5b30080cf5400f8ff32004200200006
:1014500090c2b300984f100038003a000805e80029
:101460003600370094c6b30084cf5000030032002a
:1014700090c4b30080cf500034003a001840900070
:10148000854f500002003200834f50002a003a007e
:10149000a840900060c6b30080cf50000300320027
:1014a00060c4b30080cf500023003a0063054400bd
:1014b0003200b3009a40780084cf5000030032001d
:1014c00090c4b30080cf50001c003a004840900008
:1014d000854f500002003200834f500017003a0041
:1014e000d840900084cf50000300320090c4b30075
:1014f00080cf500011003a00e840900040c7b30090
:1015000080cf50000300320040c5b30080cf5000b0
:101510000a003a00f840900090c7b30080cf500016
:101520000300320090c5b30080cf500003003a00a2
:1015300068054400010037000001eb000b00e000eb
:10154000040032008a0d7800020037000200a0007b
:10155000080578000a0e7800020078004f0678002f
:101560004f05be004f04be0000000600e4874700a0
:10157000889fbe008a9fbe008c9fbe008e1f780091
:1015800080bf9f008104780002077800030678007e
:101590006922b900040578008006eb0000c3b3009f
:1015a000020037008904e8001d002000994f100058
:1015b000fcff3200000eeb003c1678000c047800b3
:1015c0008005eb00280037008a8f550016003d008b
:1015d00092002000110009008205d8000100780067
:1015e0000000e00003003a0064044400000ceb003b
:1015f00038147800a2002000030020001800be006c
:10160000f0100700194178000201fb00cf91de00c5
:1016100000004100818049000003b1000180b10059
:10162000008cbe000d0037001000200001002000db
:101630001c0e40005c9648008a8f550008003a0056
:1016400040c3b300994f1000050034001000200083
:1016500001002000180c4000589448008b05e80059
:101660008904e8001d002000194178000200fb00f9
:101670000003b100e90f5000d3ff36008b0f550077
:1016800001003d008a057800e0c2b300804f5100a0
:1016900001003a008904e8000b00e0000700320076
:1016a000290037000080eb008080eb001c0e40001a
:1016b0005c9648008904e8001d00200000c3b300c8
:1016c000994f1000f7ff32008005eb001e00370035
:1016d0008a8f55001a003d00920020001100090079
:1016e0008205d800010078000000e00003003a0005
:1016f00064044400000ceb0038147800a2002000c1
:10170000030020001800be00ae1007001941780049
:101710000201fb00cf91de00000041008180490002
:101720000003b1000180b100008cbe008b05e80011
:101730000080eb008080eb001c0e40005c964800af
:101740008904e8001d0020001900fb000003b1001f
:10175000e90f5000deff3600920020001100090062
:101760008205d800010078000000e0001700320078
:10177000690510001802be00e00f5200e08f5a0009
:10178000070032004250dd0061512300010040009b
:101790001001be000400be008a100700008cbe00cd
:1017a0008a8545006150b9001c1e10001c96180067
:1017b00006003700e9855500900020000100200058
:1017c0001c0e40005c96480064045400e88f5500ed
:1017d000040034001800be00e00f5000e08f5800f5
:1017e000f4ff32000d00e000330032009940780031
:1017f00050c6b30080cf50000300320050c4b30085
:1018000080cf50002c003a008900e8001144780095
:10181000b2c2b300824f540005003200d0c2b30000
:10182000804f54000200320002447800010037006b
:101830008980e800810478008006eb006022b8000f
:1018400011003700f00f2e00515f2000800f520072
:10185000818f5a000a003c00a200200003002000f3
:101860000400be00571007000a01fb00cf91de0004
:1018700000024100818249000403b1000580b100eb
:101880008904e8001d002000194578000a00fb00cb
:101890000003b100e90f5000eaff3600d0c2b300e8
:1018a000804f540002003a0060021200e0821a00e9
:1018b0001c0e42005c964a000e00e000040032005c
:1018c0000d00e00001003a008fbc9700090f78007e
:1018d00092002000110009008205d8004f0778000f
:1018e0004f06be004f05be004f04be004f00b100c2
:1018f00000000600e8874700889fbe008a9fbe0060
:101900008c9fbe008e1f780080bf9f0081047800ee
:1019100002077800030578006722b9000406780002
:101920008006eb0000c3b300020037008904e80022
:101930001d002000994f1000fcff3200000deb004d
:101940003a1578000a0478008005eb002c00370077
:101950008c8f550019003d0072002000811f780017
:10196000110009008205d80001007800cf0078003e
:101970000000e00003003a0064044400000ceb00a7
:10198000381478001801be004418dd00cc11de00c8
:10199000830170004411dd00e0432300008050000b
:1019a00081422300614078000000fb00cf80de0010
:1019b000001c4100019449000e0037001200200075
:1019c000030020001a0d41005a9549008c8f5500e4
:1019d00009003a00e04323000080500081422300c8
:1019e00061407800e74f500003003400180c4100bc
:1019f000589449008b05e8008904e8001d00200088
:101a00009900fb0062012000e043230042fe070032
:101a1000800078000000e000cdff3a008b0f5600f8
:101a200001003d008c057800e0c2b300994f100022
:101a300001003a008904e8000b00e00007003200d2
:101a40002c0037000080eb008080eb001a0d400076
:101a50005a9548008904e8001d00200000c3b30027
:101a6000994f1000f7ff32008005eb00210037008e
:101a70008c8f55001d003d0072002000811f7800f2
:101a8000110009008205d80001007800cf0078001d
:101a90000000e00003003a0064044400000ceb0086
:101aa000381478001801be004418dd00cc11de00a7
:101ab000830170004411dd00e043230000805000ea
:101ac00081422300614078000000fb00cf80de00ef
:101ad000001c4100019449008b05e8000081eb00e7
:101ae0008081eb001a0d41005a9549008904e800f5
:101af0001d0020009900fb0062012000e04323004c
:101b000005fe0700800078000000e000d8ff3a00e2
:101b100072002000110009008205d8000100780041
:101b20000000e00014003200670010004202dd00f7
:101b30001801be000402e900030033000201410065
:101b400083814900fbff3700028cbe008085450081
:101b5000cf80de001a1d10001a951800060037000d
:101b6000e785550070002000010020001a0d40009c
:101b70005a95480064045400e68f55000400340070
:101b80001800be00e00f5000e08f5800f4ff320054
:101b90001a00be004209dd00ce01de0083017100a3
:101ba0004201dd00e2b79f00f3b79f00028dbe0047
:101bb0000d00e000350032009940780000c7b30006
:101bc00080cf50000300320000c5b30080cf50002a
:101bd0002e003a008900e80011447800b2c2b30038
:101be000824f540005003200d0c2b300804f540031
:101bf0000200320002447800010037008980e800ca
:101c0000810478008006eb006022b80011003700e4
:101c1000f00f2e00515f2000800f5200818f5a007c
:101c20000a003c00a2002000030020000400be00c7
:101c3000640f07000c01fb00cf91de0000024100a1
:101c4000818249000403b1000580b1008904e800e5
:101c50001d002000194678000c00fb000003b100b5
:101c6000e90f5000eaff3600d0c2b300804f5400a5
:101c700002003a0060021200e0821a006fb0970082
:101c8000ffb09700041d4000059548000e00e000dd
:101c9000040032000d00e00001003a008fbc970004
:101ca000090f780072002000110009008205d80099
:101cb0004f0778004f06be004f05be004f04be0020
:101cc0008f00b10000000600889fbe008a1f7800c8
:101cd0008c9fbe00000578000206be000084e8006c
:101ce00018017800c714de00f90fb20089007800ef
:101cf000f00f2000808f540006003a00f207b20077
:101d000048003a00100020001a00e00046003200af
:101d1000440037000900e00007003a000a0078009c
:101d200035030700800078000000e0000200340066
:101d3000090078003c0037006108b9000c01400040
:101d40008d814800e00f2000800f5100e08f590086
:101d5000090034000000200001f82f001800e00006
:101d6000020035000000200001f82700008dbe00b1
:101d7000100020002c003700e00f5100e08f5900c8
:101d800005003400f007280018006000c710dd00cf
:101d9000010c700021003700980078000000280036
:101da0008082600001027800f407b2000470a00095
:101db000040c780061005100e0805900f70f4000ea
:101dc000e08f480004003d00050c7800000deb009a
:101dd0000000eb0014003700f00f400003003c004f
:101de000040d7800000ceb00700040008001ea0058
:101df000090032009a0078008308de00708111002b
:101e0000180078000200dd00008d700018007800d6
:101e10000300de00000c7800188c72000080eb00dc
:101e200001003700200020004f06be004f0578005b
:101e30004f04be00000006000200fa00889fbe00aa
:101e40008a1f7800000578000204be008000780038
:101e500068805700130307001a01be000800be0087
:101e6000fb0f0700008dbe004fb99700cf91de0039
:101e70000a00780094ff07004f0578004f04be0069
:101e80000080fa00000006000400fa00889fbe00ef
:101e90008a9fbe008c1f780090bf9f00a1bf9f004b
:101ea0000205be00e00f5100e08f590066003200cd
:101eb0006011b8001a1007000000e0006200320054
:101ec000e00f5500e08f5d002e003d00600515001d
:101ed000e0851d000400200005f82300e8562300db
:101ee000090037000a08a300040032001801be00f0
:101ef0000400be00d60f07000002be008b05d10013
:101f00000a85d30064044400e00f5500e08f5d00b3
:101f10000300320020582300800f5400f1ff3a00e4
:101f20000401be000000200001f82300e00e0700bd
:101f30000001be006e805700bfff0700000678005a
:101f40000000e00039003d00e00f5500e08f5d002b
:101f50003d0032000a04be00e2112b00f3a4200071
:101f60006e805700b4ff0700000678000000e00014
:101f70002e003d0061045400e0845c002e0032001d
:101f8000f5ff3700e00f5500e08f5d0027003400bb
:101f90000400200005f82300e85623000a08a300e7
:101fa000040032001801be000400be00a80f0700a4
:101fb0000002be008b85d1000a85d300e00f5500da
:101fc000e08f5d00040034006404440020582300c6
:101fd000800f5400f1ff3a000401be006e805700ec
:101fe00095ff0700000678000000e0000f003d00ac
:101ff000e00f5500e08f5d00130034000a04be00be
:10200000e25a2c00d34927006e8057008aff070050
:10201000000678000000e00004003d006104540068
:10202000e0845c0004003200f5ff3700000120006e
:102030000c00e00003003200e10f560002003a00fd
:1020400080002000bd0207001fb89700afb89700be
:102050004f0678004f05be004f04be000080fa0016
:10206000000006006200fa00889fbe008a9fbe0042
:102070000004be00020578008300780060f92f009c
:102080000f0040007f01070088979f0099979f00ed
:102090000000eb00a09f9f009a4578000b80fb009a
:1020a0000000ea00cf04de0050c2b30080cf55002c
:1020b0000200320009047800010037000904e90039
:1020c0000800e0000b0034001f9097000801780022
:1020d0008a0078008f9197000300010090979f007d
:1020e0000000e000930032002f98970000004400a9
:1020f000a09f9f000905450050c2b30080cf550046
:10210000040032000b04e000e3ff3a002f98970030
:10211000890037000000eb00809f9f00f0979f0030
:10212000e0979f00d0979f00c0979f00b0979f00b7
:10213000c09f9f0009003700a05b23000080500073
:1021400000004000e15a2300e10078004f9897001a
:1021500001007000c09f9f000a05e8001a44780043
:102160008800fb00a05b2300e2fa070080007800f3
:102170000000e000f0ff3a00a0c2b300804f54001e
:102180000e003a00bf8897000180e900b08f9f00e1
:1021900010007800b09f9f000000e00005003d00a7
:1021a0000000ea00b09f9f004f9897000020a00019
:1021b000c09f9f000a05e80010003700b19f9f00f4
:1021c00003fd2f00f4ff2700080037003f98970019
:1021d000840f5000040032006a00b9000000410082
:1021e00003004000b09f9f000a05e8001a01fb00b1
:1021f00003004100e90f5000f4ff3600e0c2b300d5
:102200009a4f1000040032000080eb00909f9f0066
:102210008a0478001c0037008a04e800a0c2b300da
:10222000994f100007003a00bf8897000180e9002d
:10223000b08f9f0010007800909f9f008a84e80074
:10224000110037000000eb00909f9f0003fd2f005e
:10225000f4ff2700080037001f989700840f5000f4
:10226000040032006a00b900000041000300400091
:10227000909f9f008904e8001901fb0003004100c2
:10228000e90f5000f4ff3600194478008800fb0085
:102290002060230097fa07000000e00002003a00e7
:1022a00000447800010037008904e800a87f9f00ff
:1022b00080c6b300804f540004003a00994f1400c8
:1022c0000a003a006640500006003700c0c6b3005e
:1022d000804f540005003a00994f140003003a0063
:1022e00065404000a07f9f008904e8000905e800e0
:1022f000c8fb2f000f04440060f92f000f004000be
:102300008085e80088017800194178008000780015
:102310000b007800140207000000e00005003a00fe
:10232000880078000b007800db0007000000e00068
:1023300059ff3d000080eb004f05be004f04be007a
:102340000080fa00000006000000e00003003400f6
:10235000a20d0700e10f400001003a000000eb0071
:10236000000006001200fa00889fbe008a9fbe008f
:102370008c1f780002047800a0b79f00b1b79f00bf
:102380008300780078805700be0007000000eb0053
:10239000e0b79f00d8b79f0000067800dfb4970031
:1023a000194578000a80fb000000ea00cf05de0036
:1023b0000a00fb00d0fb07000000e0001a0032001a
:1023c0006fb097000000e800e0b79f003fb09700b3
:1023d000120020008000eb00afb197000300010065
:1023e00000047800c4fb0700000178000000e00052
:1023f000f3ff3a006fb09700e10f4400070032008e
:102400000000e900e0b79f003fb097008800780027
:10241000afb1970003000100230037000000e9007e
:10242000e0b79f002000370050c2b300804f550036
:10243000020032000b047800190037000b04e90099
:10244000170037006fb097000000e800e0b79f006a
:102450003fb09700120020008000eb00afb1970062
:1024600003000100800078001900fb00808f5000fd
:102470000a003200e18f40007c0032006fb097000c
:102480000000e900e0b79f003fb097000001eb00bb
:10249000afb1970003000100740037008904e80021
:1024a0000804e900e7ff3b005fb09700808045002b
:1024b000d1b79f0050c2b300804f550003003200d7
:1024c0000a04e000b5ff3a0068003700a2c2b3007a
:1024d0000040eb00914f110003003a000100e800ba
:1024e000d0b79f0002407800a0f79f000000eb00eb
:1024f00080bf9f0003fd2f00f4ff27000a00370074
:102500000fb89700840f5000040032006a00b90031
:10251000000041000300400080bf9f005fb09700b3
:102520000000e800d0b79f00dfb49700194478009e
:102530000801fb0003004100e90f5000f0ff3600e6
:1025400082007800a05d2300eaf907000000e000a7
:1025500002003a0000447800020037000900e80059
:10256000d0b79f00b8f79f0080c6b300804f5400db
:1025700005003a00dfb09700914f14000c003a00bc
:102580006640500007003700c0c6b300804f5400bb
:1025900007003a00dfb09700914f140004003a00a2
:1025a00065404000b0f79f000100e800d0b79f00f1
:1025b0005fb097009000fb00105e2300cdf907008c
:1025c0000000e00019003a006fb097000000e8003a
:1025d000e0b79f003fb09700120020008000eb00a2
:1025e000afb19700030001000004780042fb070030
:1025f000000178000000e000f3ff3a006fb09700a0
:10260000e10f4400070032000000e900e0b79f003e
:102610003fb0970088007800afb197000300010039
:10262000020037000000e900e0b79f007c805700ff
:10263000ca0207000000e00003003c000c00e000bc
:1026400009003200090037004ff097000004e00055
:10265000010032000c06e8005fb097000000e800bf
:10266000d0b79f004dff3700000678000c007800bf
:102670004f0678004f05be004f04be000080fa00f0
:10268000000006000200fa00f1bf9f000108780078
:102690000080fa00000006000400fa00889fbe00d7
:1026a0008a9fbe008c1f7800000478000106780025
:1026b00070089000f8009000010050008808900019
:1026c000010050009808900001005000a8089000f8
:1026d00001005000b808900001005000c8089000a8
:1026e000810550000002220090bf9f0000032300dc
:1026f000a0bf9f00081090000028a30018003a0017
:102700000b00e000160034008b0478000905780007
:10271000e28f5400020036002a0020000200370039
:102720000900e0000b00340058009000c801900040
:102730000a017800ee805700030001005004980061
:102740000000e0009600320068089000000045009c
:10275000600c98008a8454004240a900ebff3c00c2
:10276000780190000200e0000b0034005800900057
:10277000c80190008c00780003000100500498000c
:102780000000e0008600320068089000f800900029
:1027900001004000600c9800880c90000900e000e7
:1027a0001500340009057800e28f5400020036005d
:1027b0002a002000020037000900e0000b0034006e
:1027c00058009000c80190000a017800ec80570082
:1027d00003000100500498000000e0007000320087
:1027e0006808900000004500600c98008a8454003e
:1027f0004240a900ebff3c00180990000200e000f5
:102800000b003400e800900058009000c8019000d0
:1028100003000100500498000000e0006000320056
:10282000680890009808900001004000600c980033
:10283000a80c90000900e00015003400090578009c
:10284000e28f5400020036002a0020000200370008
:102850000900e0000b00340058009000c80190000f
:102860000a017800ec805700030001005004980032
:102870000000e0004a0032006808900000004500b7
:10288000600c98008a8454004240a900ebff3c0091
:10289000380990000200e0000d003400e8009000cc
:1028a000180890008080400058009000c8019000f7
:1028b00003000100500498000000e00038003200de
:1028c00068089000b808900001004000600c980073
:1028d000c80c90000900e0001500340009057800dc
:1028e000e28f5400020036002a0020000200370068
:1028f0000900e0000b00340058009000c80190006f
:102900000a017800ec805700030001005004980091
:102910000000e0002200320068089000000045003e
:10292000600c98008a8454004240a900ebff3c00f0
:10293000081090000028a3001b0032000b00e000ec
:10294000190034008b04780009057800e28f5400e8
:10295000020036002a002000020037000900e000d3
:102960000b00340058009000c80190000a01780064
:10297000ee80570003000100500498000000e000c2
:10298000070032006808900000004500600c9800c5
:102990008a8454004240a90003003400eaff370053
:1029a0000080eb00010037000000eb004f067800cc
:1029b0004f05be004f04be000080fa000000060074
:1029c0000003b1000b0035009000b1000800340096
:1029d0008000b100070035009001b1000400340010
:1029e0007000b100030035009001b10001003c000f
:1029f0001000050000000500800178000081e8005b
:102a00009200780000002800008360000100780038
:102a1000f007b20000097800140020000e003a0010
:102a2000930078000100e0001b00320001097800eb
:102a30008009780014ff2f00070037000180400054
:102a400093007800cf08de000109700013007800c1
:102a5000800940000402e90092007800f00720009d
:102a6000808f5000f5ff3600f50f2000050037007d
:102a70009300d1004f00dd00808970001209d10061
:102a80000402e80012007800850f5000f8ff3e00b5
:102a9000f007b20000097800120973000400780002
:102aa00000000600889fbe00800478000184e800d2
:102ab00000f82700180060004701de00f00f20003a
:102ac000800f510008003a00800ceb00f007200056
:102ad0001800600016003a00100020001100e0000d
:102ae00014003200120037000200e00005003c0034
:102af00001007800c0ff0700000178000000e0003e
:102b000008003c00f00728001800600001f02300d6
:102b1000010c700020f82f00800c41000080eb00b9
:102b200004003700800ceb000000eb0001003700d0
:102b3000200020004f04be00000006008000780046
:102b4000650060000300320010022000c0b189005f
:102b500000000600788060000200320020022000a1
:102b6000c0b1890000000600889fbe008a1f78005f
:102b700000047800010278008244780003057800a0
:102b800070c6b300804f510021003c0000c0e90036
:102b9000804f5100de003d0072405000804f5100d8
:102ba0004b0132000d003c006c405000804f510042
:102bb0005e013c0000c0e900804f5100d4003d00a0
:102bc00050c2b300804f5100550132007c4040009c
:102bd000804f510055013a00cd00370010c6b300b8
:102be000804f5100ca00320004003c006940500090
:102bf000804f51004d013a007200370030c6b300db
:102c0000804f5100180032000040e80009003700f2
:102c100000c7b300804f51001e01320008003c0085
:102c200000c0e900804f5100e400320065003c0024
:102c30006540500080cf54003c013a000f0037003f
:102c400050c7b300804f51005e0032006340400027
:102c5000804f51005b00320065405000804f5100b2
:102c600032013a001a0137009180e900010a780028
:102c7000780090009171780032013700a8609000d0
:102c8000c0c6b30080cf50000a003a00940078001c
:102c900064805000000a78001000be004f89de00fa
:102ca000cf91de000002be000203780082037800ac
:102cb0001300370010c7b30080cf5000030032006c
:102cc000a0c6b30080cf500006003a009400780000
:102cd00068805000000a78003002be002003be0069
:102ce000070037001480e900000a7800100078001f
:102cf00000027800cfa2de0005037800860378008a
:102d0000049cbe000694be00a860900080c6b3007c
:102d100080cf50000e00320020c6b30080cf50009c
:102d200005003a000400fb00cf80de0001017800be
:102d3000820178000a00370040c7b30080cf5000fe
:102d4000030032006640400080cf500006003a0089
:102d500004007800cf80de00010178008201780055
:102d6000009cbe000294be003800be002801be00d8
:102d7000e00f5000e08f5800e00f5900e08f59003d
:102d800003003d0078009000d1c2b3000a00370074
:102d9000081090000018a300030032007800900093
:102da000b1c2b300040037000008a3005300320092
:102db0007800900001c2b300017578000000e800bf
:102dc0004d003700a8609000c0c6b30080cf50000f
:102dd00006003a009400780064805000000a7800f1
:102de0001002be006033b8001300370010c7b300f4
:102df00080cf500003003200a0c6b30080cf500047
:102e000006003a009400780068805000000a7800bc
:102e10003002be002003be00070037001480e90026
:102e2000000a7800100078000002780005002000f9
:102e30000600200007002000049cbe000694be008f
:102e4000a860900080c6b30080cf50000e00320012
:102e500020c6b30080cf500005003a000480fb007c
:102e60000100200002002000030020000a003700bb
:102e700040c7b30080cf50000300320066404000de
:102e800080cf500006003a000400780001002000c6
:102e90000200200003002000009cbe000294be003f
:102ea000081090000038a300140032003800be0063
:102eb0002801be00e00f5000e08f5800e00f5900dd
:102ec000e08f59000d00320080c7b30080cf54005e
:102ed0000300320080c5b30080cf540007003a00e1
:102ee0007800900001c3b300017578008000e8000d
:102ef00009f578000080e8007004980078009000e0
:102f00000000450060049800894078006d0037009b
:102f1000a8609000c0c4b30080cf500006003a0003
:102f20009400780068805000000a78005001be00cc
:102f30004000be0005003700940078006480500017
:102f4000000a78001000be003e0e0700009cbe0084
:102f50000294be00380090000000e00003003d0035
:102f600078009000d1c2b3000a003700081090002a
:102f70000018a3000300320078009000b1c2b30033
:102f8000040037000008a30005003200780090001c
:102f900001c2b300017578000000e80070049800d9
:102fa0007800900000004500600498008940780097
:102fb000080078008902070064003700a8609000cc
:102fc000c0c6b30080cf5000250032000a003c008c
:102fd0006440500080cf50002800320000c0e8005c
:102fe00080cf5000140032006840500080cf500065
:102ff00022003a000a00370040c7b30080cf5000db
:103000001e0032006640400080cf50001b0032009e
:103010006940500080cf500018003a000600370089
:103020001480e900000a780010007800485c9000e5
:1030300008487800450037001480e900000a78004d
:103040001002780068089000cf80de00010178004f
:1030500082017800009abe000292be003b00370059
:103060001480e900000a78001001780068089000d8
:10307000cf80de000089be00340037001480e900f4
:10308000000a780010007800680c900008087800aa
:103090002e0037001180e9008008780010007800c9
:1030a000cf80de000101780082017800009cbe0024
:1030b0000294be0078009000000045006004980073
:1030c00081c7b30008007800bb0007001f0037006d
:1030d0001480e900000a780010007800600498006d
:1030e000580990000200e00002003d00caf5070008
:1030f000090037008000eb0087f8070080007800a7
:103100000000e000030032006800900000805000e2
:103110000100370058089000100c98000b00370091
:103120007800900002757800060037007800900063
:10313000800045000904e00001003a0059c2b300d4
:10314000894878000000e800700498000000eb0057
:103150004f0578004f04be0000000600881f78006d
:10316000000478000040eb00005498003800900004
:103170009040780090c6b30080cf50002a00320003
:1031800013003c007140500080cf500026003200f8
:1031900005003c0050c2b30080cf500064003200f4
:1031a00030c5b3001b00370030c6b30080cf5000dd
:1031b0001b0032000040e80080cf50001a003200af
:1031c0006940500080cf50006e003a007300370015
:1031d00000c7b30080cf500007003c000040e9006a
:1031e00080cf500010003d000040e90080cf50002b
:1031f00064003a000f00370050c7b30080cf500082
:10320000090032006340400080cf500006003200c9
:103210006540500080cf5000430032005900370015
:103220008000eb005e0037000800780014040700ff
:103230005f003700684890000004e0005b003a003f
:10324000f8489000c0c6b30080cf5000270032007d
:103250000a003c006440500080cf50002b00320038
:1032600000c0e80080cf50001500320068405000d8
:1032700080cf500025003a000a00370040c7b30055
:1032800080cf5000210032006640400080cf5000c7
:103290001e0032006940500080cf50001b003a00f1
:1032a00007003700280090000080e9002004980003
:1032b00010007800084c9000084878003b00370068
:1032c000280090000080e900200498001002780097
:1032d00048009000cf80de00010178008201780074
:1032e000009abe000292be00300037002800900015
:1032f0000080e90020049800100178004800900048
:10330000cf80de000089be00280037002800900032
:103310000080e90020049800100078004804900024
:103320000808780021003700110020001c00370039
:10333000480090000000e800400498001800900049
:1033400098017800120020008000eb0003000100cb
:103350008000780050022000808f5000130032005f
:1033600048009000e18f4000080032000000e900b2
:103370004004980018009000980178000001eb00cc
:10338000030001000000eb00090037000000e90025
:103390004004980001007800050037008080eb00b1
:1033a000080078000f05070001003700100020001a
:1033b0004f047800000006002f03b000889fbe0075
:1033c0008a9fbe008c9fbe008e1f78000007780089
:1033d00090502300c0b79f0080c5b30080cf50003d
:1033e00008003200824f2300c2b79f0077404000a0
:1033f00080cf500003003a0083002000b3b79f0045
:103400000a00370080c7b30080cf500005003200ab
:10341000a4002000b4b79f0080c5b30080cf500047
:1034200002003a0005012000b5b79f003e04be002f
:103430002e05be0040c6b30080cf5000030032000e
:103440006540400080cf50000b003a00e00f540070
:10345000e08f5c00e00f5d00e08f5d0006003d0046
:103460006000b8006011b80008045000898458005a
:103470000a0559008b855900bfb39700e88f5300a8
:1034800003003200f08f530045003a00020037007d
:10349000360020000100370046002000e00f5400f5
:1034a000e08f5c00e00f5d00e08f5d0005003a00fa
:1034b0005e08900081012000a1b79f000000e0009d
:1034c000080032003fb197000200e90008006000e8
:1034d000cfb197006340780090df9f007401200017
:1034e000a4b79f00860278008502e900050033003a
:1034f0008b05d1000a85d3008984d3000884d300ca
:10350000f9ff3700089fbe000a97be00afb39700cf
:103510000700e90021fc2f008f804000008240005e
:103520003fb197008202e90012003700afb3970065
:103530008703e900a7b79f0000806200cfb0970023
:10354000615278003e00be002e01be008603780066
:103550008703e900050033008381d1000281d30095
:103560008180d3000080d300f9ff3700009fbe00a8
:103570000297be003e00be002e01be00e00f5000cc
:10358000e08f5800e00f5900e08f5900d60034005a
:10359000afb397000700e000e4ff3c00d200370023
:1035a000ae60900080c6b30080cf50000b003200a8
:1035b00006003c000104e0000800320066405000b4
:1035c00080cf500073003a0004003700c0c6b3003b
:1035d00080cf50006f003a003100370008017800ba
:1035e0000800e00005003a005e089000810120001c
:1035f000a1b79f000000e00009003200bfb19700b2
:10360000110009000381d8008000fd004fb297002f
:103610006440780090df9f0075012000a5b79f00ef
:10362000bfb39700110009000781d800800178001e
:10363000afb097000100e90022fc2f000f0141000c
:10364000000241000c003700bfb2970011000900d2
:103650008501d80000017800afb397008703e90027
:10366000a7b79f000590b90000805100cfb0970028
:1036700061527800820178000300e000030034000a
:103680002fb197000200e000efff3c00030078003c
:10369000cf80de0001017800820178003a00370017
:1036a0000806be00e00f5400e08f5c0005003a0001
:1036b0005e08900083012000a3b79f000000e00097
:1036c000090032003fb297006121b9000c00be0032
:1036d0007b0c0700cfb297006540780090df9f0019
:1036e00077012000a7b79f003fb297006121b90082
:1036f0000c00be00de0807000006be00afb2970057
:103700000500e90027fc2f008f83430080834300de
:1037100097b79f00110037003fb197006114b900bf
:103720000801be000c00be00680c07000005be00ca
:10373000afb197008301e900a3b79f000801be0065
:10374000a0080700000056001fb29700cfb29700f4
:103750006552780094b79f000a06be00e00f56003d
:10376000e08f5e0003003400afb397000700e00075
:10377000e9ff3c004feade00cfa2de000c00be00f5
:103780000401780084017800009fbe000297be000b
:1037900055003700e00f5400e08f5c00e00f5d0043
:1037a000e08f5d0005003a005e0890008101200076
:1037b000a1b79f000000e0000d0032003fb197006c
:1037c00002027800cfa2de000503780086037800ad
:1037d0000800be000a01be00560a07004fb297005b
:1037e0006440780090df9f0075012000a5b79f001e
:1037f0003fb1970002027800cfa2de0005037800f7
:10380000860378000800be000a01be00420a0700d5
:10381000009fbe000297be00afb197000300e90011
:1038200024fc2f000f024200000642002000370057
:10383000bfb2970005047800cfc4de000905780008
:103840008a0578000802be000a03be005fa8970040
:10385000efa897007fa997008fb19700390a07005a
:10386000d0b79f00e1b79f00f2b79f0083bf9f00d2
:10387000afb397008703e900a7b79f000802be0017
:103880000a03be00b50a07005faa970000005200b5
:10389000cfb29700655678005fb09700efb0970001
:1038a0007fb197008fb99700009fbe000297be00be
:1038b0003e00be002e01be00d0af9f00e1af9f00d2
:1038c000f2af9f0083b79f00e00f5000e08f5800d9
:1038d000e00f5900e08f590003003400afb09700ab
:1038e0000100e000d2ff3c003fb19700e80f51001b
:1038f00013003a000e1090000038a30010003200b0
:10390000afb19700f78f510006003e0024fc2f0056
:103910000f0242008300420000c3b300914f100029
:1039200007003200afb297008502e900a5b79f00fb
:1039300000c3b30027fc2f008f83430080f37a007d
:10394000afb1970078811100120f98006e009000bf
:1039500024fc2f000f02420083004200def4070027
:103960001e0990005e089000800f510006003d0087
:1039700002005000000f98000e1090000040a100bf
:10398000001798000f0037000000e0000d003d0018
:103990000e10900074006000f00f500009003a0013
:1039a0007e089000fe009000010050008e089000fc
:1039b00001005000020050004240a9000100340004
:1039c000000f98004f0778004f06be004f05be005d
:1039d0004f04be002f03b100000006008f04b000aa
:1039e000889fbe008a9fbe008c9fbe008e1f7800fd
:1039f000f0b79f0081f79f005001be004000be005d
:103a0000f0979f00819f9f00929f9f00a39f9f0020
:103a100010c6b3000ff19700804f5100160032001e
:103a200010c4b300804f510013003200ffb1970063
:103a3000530890000000e00003003d0060002000fb
:103a4000d00998000c0037000000e0000a003a009e
:103a500070c6b3000ff29700804f5200030032008f
:103a600070c4b300804f520003003a0010002000e1
:103a7000ffb29700d00a9800ffb09700c0fa2f005d
:103a80000f0040004404070080017800e20f50005e
:103a900015003a0030002000ffb097009008980011
:103aa00010c6b3000ff19700804f51000a0032009a
:103ab00064404000804f5100070032000040e800a1
:103ac000804f510004003200613f23000040e800b5
:103ad000804f510001003a00a13f2300ffb1970041
:103ae00063009000160037000000e000180034006a
:103af000300020007fb29700100a980010c6b30073
:103b00008ff2970080cf52000a00320064404000dc
:103b100080cf5200070032000040e80080cf520002
:103b200004003200e13f23000040e80080cf520053
:103b300001003a00214023007fb19700620090000d
:103b4000315878003158780011487800c6013700a4
:103b500014c6b3008ff2970084cf520003003200e6
:103b600010c4b30080cf520013003a007fb097001a
:103b7000600190008200780000c3b3008058780094
:103b8000ffb29700e102980080c7b3008ff2970060
:103b900084cf52000100320080c5b3008048780015
:103ba0000280e800ffb09700e000980071009000ec
:103bb0000080e800f00098000300e00005003a00f3
:103bc000e3979f0064fb2f000f014200030778007a
:103bd000a001370065402300e5b79f0010c6b30081
:103be0008ff0970080cf50000500320010c4b30062
:103bf00080cf5000a7003a0072412300e2b79f0037
:103c0000ffb19700530890001e0220000000e00062
:103c1000010035000007e8000e02e800d4b79f005d
:103c20006022b8006033b8007f9097008f989700ab
:103c30001f999700af999700330b0700ffb09700cb
:103c40003102be002103be000000e00004003d0080
:103c50000400be000601be0003f0a200020037000f
:103c60000400be000601be00f0979f00819f9f00e8
:103c7000929f9f00a39f9f006f9197006401510046
:103c8000e2979f00c3fa2f008f8141006a804100b4
:103c90000048eb006b824100c4b79f003100370041
:103ca000c201200003002000e5fa2f000f8042002f
:103cb000e50307007f9497008f9c97001f9d970056
:103cc000af9d97000800be000a01be00130b07005d
:103cd0000006be005fb1970067015100d2b79f0098
:103ce0004240a9000a003400380b07000002be0061
:103cf0000203be000800be000a01be00360b07002a
:103d0000f0979f00819f9f00929f9f00a39f9f001d
:103d1000cfb1970067804100710020000500370097
:103d20006f6066004c6add004466de000c067200bf
:103d3000c4eede00e00f5600e08f5e0005003400a8
:103d40008100e900e18f4000f5ff3a0001003700f3
:103d50000060eb008100e900fdff3b0067004000d0
:103d6000c0b79f00dfb297000500e00009003400f3
:103d70006022b8006033b8007f9097008f9897005a
:103d80001f999700af999700150b07000000e000fe
:103d9000c3ff3c0060fb2f008f0040004fb1970035
:103da000010051000000e9008e0f500001003d00ad
:103db000000778000e00e00003003d0073fb2f00b9
:103dc0000f8141002c003700800f570005003d0097
:103dd0000e80400010409000f3c0b300e74f500049
:103de00001003c008041eb00c4fa2f000f024200aa
:103df0000e0042006a0040008e007800010037008b
:103e00000000e9008100e90010417800834f510073
:103e1000fbff32000107e800efcf510001003a003c
:103e20000248e8000100e0000300350075fb2f00a8
:103e30000f814200060037000e07e8006f909700e0
:103e400064004000e0979f0061fb2f000f8140005d
:103e50008e0041008e017800030037001100fb0046
:103e60006fb29700e44878008301e9008100e9001f
:103e70000300e000f9ff3d00ffb2970055089000f5
:103e80000000e000f3003d000e00e900d00a9800b9
:103e9000f00037007f9497008f9c97001f9d97003c
:103ea000af9d97006022b8006033b8000800be00e4
:103eb0000a01be00940a07000000e00005003d0072
:103ec0000bf0a200f8979f00899f9f009a9f9f0088
:103ed000ab9f9f006f909700725927000280b90036
:103ee000026a280013002000780a0700e40050004e
:103ef000e1979f0015003b00e3801000c0ff2f00fa
:103f0000008460000800ea00e0979f007f9097001f
:103f10008f9897001f999700af999700492c23001d
:103f2000070037000808a300030032003902be0072
:103f30002903be00af0a07000884d100e8844400ca
:103f40000800e000f7ff3c001b0037000100e00024
:103f50001d003400c0ff2f0000806000e0979f002c
:103f6000000478006000b8000200200003ff230076
:103f7000492c2300070037000808a3000300320083
:103f80003902be002903be009a0a07000884d10046
:103f9000e88444000800e000f7ff3c000002be0097
:103fa0000203be007f9097008f9897001f9997009b
:103fb000af999700040b0700f0979f00819f9f0027
:103fc000929f9f00a39f9f00ffb097005109900010
:103fd00060c6b3008ff1970080cf5100040032001b
:103fe0006100200060c4b30080cf510002003a009d
:103ff0006f929700ea00420001074100f30f57005b
:10400000010034003e01200000c3b300e0779f00b0
:1040100075fb2f008f824200b5b79f003300370039
:104020000800be000a01be003c0a07000006be00f0
:10403000680757004240a9000e003400630a0700d9
:104040000002be000203be000800be000a01be005e
:10405000610a07006022b80046782d007719240015
:10406000640a0700f0979f00819f9f00929f9f0026
:10407000a39f9f003fb09700680440008900200084
:104080000d003700a4002000050020000c01be0038
:10409000e0fd2f000f004000660307007fa8970097
:1040a0008fb097001fb19700afb1970004c3b30062
:1040b000046441000006be00e00f5600e08f5e0081
:1040c000060034008904e900e18f4400edff3a0066
:1040d0000200370000c3b300006478008904e900df
:1040e000fcff3b0068044400b8b79f000e00e000ee
:1040f0000b0034007f9497008f9c97001f9d9700c2
:10410000af9d97006022b8006033b8000800be0081
:104110000a01be00320a07000000e000c0ff3c00b8
:10412000c5fa2f008f8242006a804200bfb097001c
:10413000008050008001e9006f919700e700410086
:104140006b81420000c3b300010037000201e800a8
:10415000924f1000fdff320074fb2f000f00420051
:1041600080804000828050000080410002025000a8
:10417000e1979f00ffb29700d509900060c6b30099
:104180008ff2970080cf52000300320060c4b3006a
:1041900080cf520002003a008100e8000a00370098
:1041a00050c6b3008ff0970080cf5000050032005a
:1041b0008000eb0050c4b3008ff2970080cf520014
:1041c00001003a0011002000018741008e0f5200cb
:1041d00001003d00040778000e00e0001d003500de
:1041e000840f570005003d00e2407f0095c3b300f7
:1041f00040c3b30080cf500001003c0005c3b300b2
:104200000e0041008000e9008e01780001003700b7
:104210008100e9008301e90011427800854f5200d6
:10422000fbff32000307e80090c3b30080cf5200c9
:1042300001003a008448e8000300e00005003d006a
:104240000201e9000e07e8006f9097000000e80007
:10425000e0979f006f9297008e0178008ff0970093
:104260007fb09700100307004f0778004f06be008d
:104270004f05be004f04be008f04b10000000600d1
:104280002f02b000889fbe008a9fbe008c9fbe0098
:104290008e1f780080047800600090000000e0002d
:1042a00001003c00f0ff27000000e900d004980066
:1042b000c90090000c0033000100e800c004980021
:1042c0001900900099017800120020008000eb0096
:1042d0000300010000057800b0022000800f5500a7
:1042e00006003a000b0037000100e800c004980007
:1042f0002cfd2f000f0646001b003700d0022000c7
:10430000800f5500030032002cfd2f000f064600e1
:104310001600370030fd2f000f044000aad79f0081
:10432000590090000000e900d0049800c9009000f6
:104330000a0033000100e800c00498001900900052
:1043400099017800120020008000eb0003000100ba
:104350000005780008067800040037000100e80036
:10436000c0049800080678000085eb00984d2300f3
:10437000390090009000fb00080078005df2070013
:1043800008005000214d2300614478008805fb009f
:1043900000032000800f550033003a0059009000c0
:1043a0000000e900d0049800c90090000c00330020
:1043b0000100e800c00498001900900099017800fd
:1043c000120020008000eb000300010000057800cf
:1043d00080072000800f550005003a0007003700d5
:1043e0000100e800c00498000085eb001b003700c6
:1043f00080052000800f550018003a000804e000f6
:1044000002003200f04f54001d003a0059009000a5
:104410000000e900d0049800c900900009003300b2
:104420000100e800c004980019009000990178008c
:10443000120020008000eb0003000100000578005e
:10444000030037000100e800c00498000085eb007d
:104450000047eb000b012000110037000804e000ca
:10446000b8003200060037000047eb000804e00007
:1044700004003a00ad002000084778001c00370017
:104480001ec0b300ad002000ea4f540018003200f7
:10449000e88f550002003a008b06780014003700c0
:1044a0006d01200012003700590090000000e90063
:1044b000d0049800c9009000090033000100e80012
:1044c000c0049800190090009901780012002000a3
:1044d0008000eb00030001000005780003003700b6
:1044e0000100e800c00498000085eb001ec0b30086
:1044f00000032000800f5500ebff32000e04e000a7
:1045000018003200005e7800160037006f805700f8
:10451000800f5600010031000a5e780059009000bb
:104520000000e900d0049800c900900009003300a1
:104530000100e800c004980019009000990178007b
:10454000120020008000eb0003000100000578004d
:10455000030037000100e800c00498000085eb006c
:104560001ec0b300e10f4500070032000d017800c6
:104570008a007800104e230067f307000000e00077
:10458000e2ff3a0066003700490090000000e900b1
:10459000c00498000e04e00008003a0020fd2f003f
:1045a0000f004000800f56005b003a00e10f45000d
:1045b00059003a008a00780065003700004eeb0091
:1045c00069489000110020000004e00060003a00fb
:1045d000390090009040780040c6b30080cf500072
:1045e000030032006540400080cf50000a003a00ce
:1045f0000b0178008000eb0020fd2f000f00400031
:104600005d0307000203be000002be0010c0b3003d
:10461000805498000d0037000b0178008000eb00fb
:1046200020fd2f000f004000ad0307000203be0075
:104630000002be0010c0b30080549800b900900082
:1046400000c7b300914f10002c003200f9489000d1
:10465000c0c6b30080cf5000220032000a003c00e8
:104660006440500080cf50002400320000c0e800b9
:1046700080cf5000140032006840500080cf5000be
:104680001e003a000a00370040c7b30080cf500038
:104690001a0032006640400080cf50001700320000
:1046a0006940500080cf500014003a0006003700e7
:1046b000290090000080e900a00498001000780014
:1046c0000448780012003700290090000080e900bb
:1046d000a0049800100078000498be000690be0068
:1046e0000b003700290090000080e900a00498002a
:1046f000100078000488be000500370029009000f3
:104700000080e900a00498001000780004087800f8
:10471000110020000e0037008000eb000c00370075
:10472000490090000000e900c004980019009000c2
:10473000990178000001eb008a0078000300010075
:1047400094ff37001ec0b3008b00200052ff3700db
:10475000010078004f0778004f06be004f05be00ed
:104760004f04be002f02b100000006008001780057
:10477000d4c2b3000f0037000300e800904f1200ce
:1047800008003a0093cf100003003e002340900041
:1047900080cf500012003600e381410063015100d8
:1047a0000400370093cf10000d0032000201e90031
:1047b00080017800e20f5100efff3e000002eb00a5
:1047c0000400370064c079000402e800814f500003
:1047d00003003200820f5200faff3a000000050089
:1047e00010000500f0874700889fbe008a9fbe002a
:1047f0008c9fbe008e1f7800000478008106780030
:104800000000eb00c0b79f00f8489000c0c6b3009e
:1048100080cf500002003a0011002000c1b79f0075
:104820000d00e00023003d00b80090000100e8000a
:1048300030049800e2c5b3008041eb0083f79f008d
:10484000904f110003003a000180e8003004980006
:1048500082f79f00b8049000d0c5b300994f1000b4
:104860000200320009007800010037000900e8006a
:10487000d10520001ff10700d0b79f008000eb009a
:104880000000e000bd00320009065000e20f5600b3
:10489000080034000c81e9000900e800d102200082
:1048a0009df2070011c0b300c1ef9f000000e000bf
:1048b00002003a008041eb00c3ef9f0068009000c7
:1048c0000000e00004003c00f0ff27000d00e000c5
:1048d00001003a0010002000500498006848900041
:1048e0000004e0000d003a0028009000cfb09700cf
:1048f0000100e000050032000080e900200498007b
:1049000010007800b0b79f00040037000080e90075
:104910002004980010007800f0b79f000045eb00dd
:104920005e0037000d00e00003003400090078004d
:1049300071f207001e0037000d00e0001e0032007b
:10494000cfe997000304e0000c003a003800900023
:104950008ff097000104e00004003a000c01780099
:10496000890078006cf207000b0037000c0178001a
:104970008900780068f207000d00370038009000c9
:104980008ff197000304e00006003a000c01780064
:104990008900780075ff07000000e00006003a007b
:1049a0006d0037000c017800890078006fff070068
:1049b0000000e00068003a004fb097000000e000ff
:1049c00009003a00684890000004e00032003a0014
:1049d000ffb0970089587800f1b79f0010c0b3006e
:1049e000005498002c003700c9e79f008905fb00a0
:1049f0000b00780001003200100020000005780054
:104a00001e0020000000e00016003a000904e0004b
:104a100004003a007c8057007fef07000005e800a3
:104a2000100037000e07e900fc81570063407f004b
:104a30008000fb0048019000e14f40000700320079
:104a40000200e900400498001800900098017800e6
:104a50000001eb0003000100020037000200e90042
:104a6000400498008e0f5500eeff35006848900016
:104a70000004e00005003a003fb097000b187800f2
:104a8000b0b79f0010c0b3000054980068009000b9
:104a90000000e900600498002ac0b30058009000ac
:104aa0000000e90050049800480190000b0033001a
:104ab0000200e80040049800180090009801780077
:104ac000120020008000eb00030001008004780049
:104ad000e10f400093ff3a00020037000200e800b7
:104ae00040049800480090000000e900400498004d
:104af0000d00e00002003200e24f550004003200d9
:104b00000a00fb008080eb001c0032001000370020
:104b1000684890000004e00009003a00cfb0970018
:104b20000100e00003003200bfb197008009eb00f4
:104b3000030037008fe897007fb0970001487800a6
:104b40000d00e00002003d00dfb197003304980043
:104b50001100200009003700480090000000e90023
:104b60004004980018009000980178000001eb00c4
:104b70008900780003000100ddff370001007800a4
:104b80004f0778004f06be004f05be004f04be0021
:104b90000f01b10000000600889fbe00800478006d
:104ba0006684400000ff2700180060004401de001a
:104bb000f07f2000800f51000e003a00800ceb00c7
:104bc000180478006f0064001c003a002100900077
:104bd0000000e00019003a00110090000000e00021
:104be00016003a00100020001100e000140032000e
:104bf000120037000200e00005003c0001007800d0
:104c000019030700000178000000e00008003c00e4
:104c1000f00028001800600001fe2300010c700065
:104c200020c02f00800c41000080eb000400370002
:104c3000800ceb000000eb0001003700200020009a
:104c40004f04be0000000600889fbe008a1f780047
:104c50008c9fbe00000478000206be00e6044000ff
:104c6000190178000200d0004505de008a007800b6
:104c7000f07f2000800f55000c003a006f006100ab
:104c800067003a00280090000000e00064003a004d
:104c9000180090000000e00061003a0010002000c1
:104ca0001800e0005f0032005d0037000a00e000fd
:104cb00007003a0008007800eb0207008000780047
:104cc0000000e000020034000a00780055003700c0
:104cd0006108b9000c0140008d814800e07f200090
:104ce000800f5100e08f59000d0034001900e000e2
:104cf00004003d006000b8000200200003ff2f0008
:104d0000030037006000b8000200200003ff270006
:104d1000009cbe000294be0010002000410037003d
:104d2000e00f5100e08f590005003400f00028002a
:104d300019006000c410dd00810c700036003700df
:104d40001900780001002800010360006f00600076
:104d50000040a000800c780061015100e081590002
:104d6000c0fc2f00f1ff2f00800f5100818f5900f0
:104d700006003d00860c78000000eb00200498003f
:104d800010049800000c780026003700020078001c
:104d90000881e800e400440005003700120c7800a8
:104da0001109780099087800800ceb007000400031
:104db000f00f4000f9ff34008002ea0015003200d5
:104dc0008881e80070821200980078008508de0073
:104dd000130078000400dd00008c700064014400c2
:104de000930078008508de00120078000400dd00e2
:104df00080897000920078008508de001900780034
:104e00000400dd0000897000190078000500de0054
:104e1000800c7800990c73000080eb0001003700d3
:104e2000200020004f06be004f0578004f04be0052
:104e3000000006000400fa00889fbe008a9fbe00a2
:104e40008c1f78000006780092bf9f00a3bf9f00d0
:104e50000404be000401be001fb89700afb897005d
:104e60009a0607000005be000001be000800be0053
:104e7000d40207001fb99700afb997000000510096
:104e80008180590020069800310698000a8ebe00e5
:104e90000c0078004f0678004f05be004f04be009e
:104ea0000080fa00000006000e00fa00889fbe0095
:104eb0008a9fbe008c9fbe000004780001457800e8
:104ec0000206780083047800840678000300e0007e
:104ed00002003c0019002000ec67230060c6b3000c
:104ee000804f55000e00320060c4b300804f550063
:104ef0000b00320070c6b300804f55000300320033
:104f000070c4b300804f55009c003a00e48f460007
:104f10008000350058089000808f56007d003d00cd
:104f20008d05e80060c6b300804f550010003200c8
:104f300060c4b300804f55000d003200081090008f
:104f40000038a30004003a0058089000808f5400f5
:104f500001003d00590c9800580890000b005000cb
:104f6000500c980002003b000000eb00500c980031
:104f70000b00e00027003c0018099000680090003a
:104f800001c3b300017079008201e800130c98009e
:104f9000580890000000e00003003c00081090005a
:104fa0000038a3000500320068009000e1c2b300a1
:104fb00001f079000280e800100c9800d8089000f9
:104fc0000b00ea00808f500001003d008105ea00df
:104fd0000b00ea00200c980001804500500c98005e
:104fe000890f500001003d0080047800390c9800c2
:104ff00068009000980890000100400009017800c6
:105000008c00780034ef0700580890000900500029
:105010001a00370098089000680090008b8f5400a9
:1050200018003d0001004000090178008c00780064
:1050300029ef07001808900000814400120c980026
:1050400009805500200c9800580890000000e000ee
:1050500003003c00081090000038a3000600320056
:10506000e8009000e0c2b30080707900380890003a
:105070000000e800300c980058089000400c9800a0
:10508000a6003700010040000b0178008c0078007a
:1050900011ef07001808900000814500120c9800dd
:1050a0008b845400580890000000e00003003c008e
:1050b000081090000038a30005003200680090003e
:1050c000e1c2b300017079000200e800100c980002
:1050d00058089000890f500001003d0080047800be
:1050e0006800900098089000010040008b00460086
:1050f00009017800f8ee07001808900000804400cd
:10510000100c98005808900009005000200c9800de
:105110008200370070c6b300804f55000300320094
:1051200070c4b300804f550014003a005808900036
:10513000808f540004003d00081090000038a30048
:1051400001003a00590c9800580890000000e9004e
:10515000500c980002003b000000eb00500c98003f
:1051600070c6b300804f550002003a005ac6b30023
:105170000b0037005ac4b3000900370010c6b30053
:10518000804f550002003a000ac7b3000400370000
:1051900010c4b300804f550001003a000ac5b300a7
:1051a00018099000680090003c7079008201e800c6
:1051b000130c98000c027800580890000000e000e2
:1051c00003003c00081090000038a30017003200d4
:1051d000e8009000e0c2b30080f079008280e8002f
:1051e000110c9800580890000000e0000f003400f7
:1051f0008904e900890f500001003d008004780017
:105200006800900000804000090178008400780068
:10521000b1ee07001808900000804400100c9800c0
:105220005808900009005000200c98006800900079
:1052300098089000010040000086e8000a587800b5
:10524000800078000d00e00004003500b0c2b3001b
:10525000804878008c04780004003700d0c2b30086
:10526000804878008c0478008d06ea008005eb0009
:105270000a003700a20020008d00780070805700df
:10528000c50107000fb897009fb897007a815500b5
:1052900001f17f008b05e800800678000d00e0003a
:1052a000f4ff3c00e18f550009003c0050c6b300fc
:1052b000804f55000300320050c4b300804f5500aa
:1052c00003003a0000c3b300005e78008c0478004d
:1052d0000b00e000040032000b00e900fa805700e8
:1052e000008040000600370000c3b300805c7800f7
:1052f000050037008b05e90002c3b300a05c410044
:105300000b00e000fbff3c00680090009808900054
:105310000100400000805400300c980008109000fc
:1053200074006000f00f50000e003a00780090000a
:105330009808900001004000a8089000010040007b
:10534000b808900001004000c808900081004000ab
:1053500078089000808f500002003d00010050004e
:10536000000c98004f06be004f05be004f04be0063
:105370000080fa00000006000200fa00889fbe00cc
:105380008a9fbe008c1f7800800578000105780098
:10539000020678000100e00001003a006c85570029
:1053a0000b047800010037000804e80098447800f6
:1053b0000900fb00d0ef07000000e000faff3a0010
:1053c000d0c2b30080cf54000500320000c0e90015
:1053d00080cf540002003200804478000100370082
:1053e0000804e8000c0178008a00780008007800c2
:1053f0003b0007000203be000002be009a0f5400eb
:1054000001003a000b0d78009a8f550005003a0014
:10541000e00f5200e08f5a00e00f5b00e08f5b006e
:1054200014003a00b0c2b30080cf540006003a0026
:10543000e00f5200e08f5a00e00f5b00e08f5b004e
:1054400020003d000b003700d0c2b30080cf5400d5
:105450001c003a006000b800020020000300280091
:105460000020e10001a8e10002b0e10003b8e10082
:105470000e00360020022000c0b189006b404000c1
:1054800080cf540004003a006000b8000200200001
:10549000030028000d003700f0ff2f00f1ff2f0060
:1054a000f2ff2f00f3ff2700080037006000b8006c
:1054b0006011b800040250008582580006035900ac
:1054c000878359000400be000601be004f06780025
:1054d0004f05be004f04be000080fa000000060029
:1054e000fc874700889fbe008a9fbe008c9fbe003d
:1054f0008e1f78000007780081067800820478000b
:1055000000047800010037000804e800184678001d
:105510000c00fb0078ef07000000e000faff3a0003
:10552000d0c2b300804f56000500320000c0e90031
:10553000804f56000200320000467800010037001c
:105540000804e8000900e00005003500e18f540080
:105550000300320040022000808f54000400340019
:105560000d00e000b00032008e0e7800ae00370073
:105570000900e0000e003400f08f54001a003a00d9
:1055800000c3b300984f100016003a0098409000f6
:1055900080c7b30080cf50000300320080c5b30045
:1055a00080cf50000f003a000884e8000e0037005a
:1055b000a900200000c3b300984f10000a003a0071
:1055c0009840900080c7b30080cf500004003200a4
:1055d0008900200080c5b30080cf500002003a004f
:1055e0000884e800090120000805780000c3b30022
:1055f000010037000a05e8009a4f1000fdff320055
:105600008a0578006022b8006033b80026003700b1
:10561000f029230080c0500081ef9f00090278002c
:10562000cfa2de0005037800860378000fb0970054
:105630009fb097002fb19700bfb1970047030700b5
:10564000d0b79f00e1b79f00f2b79f0083bf9f00d4
:105650000fe897000002fb00cfa2de0005037800f0
:10566000860378008b05e8000fb097009fb0970085
:105670002fb19700bfb19700c0af9f00d1af9f007f
:10568000e2af9f00f3af9f005fb09700efb09700cd
:105690007fb197008fb997000002420081824a00d3
:1056a00002034b0083834b0084b79f0095b79f0094
:1056b000a6b79f00b7b79f001b00fb005bee07007b
:1056c0008000780009017800f029230012ef07001c
:1056d000800078000000e000cdff3a008b0f5400fe
:1056e0000a003a000d00e0004f0032008e0e7800f4
:1056f0006022b8006033b80084b79f0095b79f0060
:10570000a6b79f00b7b79f004d0037008a805500ad
:10571000a027230060c07c000000fb000080500038
:105720002c0033004240a90020003c008fea970083
:105730000500fb00cf80de000101780082017800c7
:105740000fb297009fb297002fb39700bfb3970097
:105750000000520081805a0002015b0083815b00df
:105760000020e10001a8e10002b0e10003b8e1007f
:105770000e00390009027800cfa2de000503780090
:1057800086037800640207004faa9700dfaa9700fb
:105790006fab9700ffab97000400e1000588e100c4
:1057a0000690e1000798e1000a0032002002200084
:1057b000c0b18900f0ff2f00f1ff2f000001be00f3
:1057c00080b79f0091b79f00a2b79f00b3b79f001b
:1057d00011003700d0c2b300804f56000e003a00cf
:1057e0006000b8006011b8000fb297009fb2970038
:1057f0002fb39700bfb39700040250008582580072
:10580000060359008783590084b79f0095b79f000e
:10581000a6b79f00b7b79f000d00e0000800320058
:105820008b0e7800060037006000b8006011b800e9
:1058300080b79f0091b79f00a2b79f00b3b79f00aa
:105840000fb097009fb097002fb19700bfb197009e
:105850004f0778004f06be004f05be004f04be0044
:10586000cf01b1000000060000017800e601400011
:105870001300780001002800810360006f006000c1
:105880008009780012003a00220090000000e00039
:105890000f003a00120090000000e0000c003a00f7
:1058a000160020001200e000380032000800370027
:1058b000e4004100910978000280e8009008780037
:1058c000120878000009eb00700353000100370054
:1058d000160020001300e000f5ff3200e402410052
:1058e0000282e800110037008000400015007800b7
:1058f0004f00de00808970009500780081804000b4
:10590000140078004f00de00808a70009400780058
:1059100081804000120078004f00de00008a700095
:1059200012007800000940000603e9001300780027
:10593000ef0f5000ecff36008282e8006402410065
:105940000e0037009200d100150078004f00dd00f6
:10595000008970009500d100140078004f00dd0030
:10596000808a70009400d100130078004f00dd00a1
:10597000008a70009309d1000603e8001300780044
:10598000ff0f5000efff3e00ef09600093897300a6
:10599000060078000000060002027800809fbe002a
:1059a000110009008200d800000178004f00be00fd
:1059b00002a2b9008480500011009800020878000b
:1059c00000000600020ab900001bb9000200b8007e
:1059d000810042008100430000000600889fbe0055
:1059e0008004780010b481000000e00003003a0059
:1059f000100007000000e0000a00350010b481002c
:105a00000900e00002003a000004780006003700b8
:105a10000004780009004000060007000000e000d4
:105a200001003d000084eb00080078004f04be0038
:105a300000000600800078000000e00004003a004a
:105a40004068230010b48900010178000600370087
:105a50000081eb0040182400808f500002003e00bf
:105a600011b489000001eb0002007800000006007c
:105a70006022b800060220000000d0008180d20021
:105a80000482d2008582d2000000a00002025200ef
:105a900083825a00030031000202420083824a00de
:105aa0000000a1000603e900f3ff3a000000060031
:105ab000889fbe008a9fbe008c1f78009c04070050
:105ac000a304330003866c006450e1002e00320012
:105ad0006420e100330032006150e1002f00320009
:105ae0006120e1003100320085855500eb07b000f0
:105af00009002000080420000500370008044400c5
:105b000089844c000a0031000603430087834b0060
:105b10000001530081815b00f8ff33000203be00e7
:105b20000800a0000804440089844c00f6ff3900f6
:105b3000c639dd008301730001003200130020002c
:105b40008904d1000884d3000998a300050032001d
:105b50000800a7000300a0008904d1000884d30036
:105b60008b05e8008904d1000884d3000001eb0014
:105b70000281d2008604070001f0a1000cf0a7000a
:105b800001f0a0007b0437006420e1007d043200b6
:105b90000801be000200be00f7ff37006120e100ef
:105ba000780432006000b800f3ff370000002000e6
:105bb00001f82700f0ff3700f4ff2f009a043700a8
:105bc0000001be00b30407000470a70003f0a100a9
:105bd00003f8a30013003a006509b1001000320079
:105be000090035006928e1000200350001002800a5
:105bf0000000050000004000818048008502e900a7
:105c0000fcff3a0000000600f88f42000500350056
:105c10008100d1000080d3008502e800fcff3a003b
:105c2000000006008000eb0000000500889fbe0019
:105c30008a9fbe00010578000100e00004003500e5
:105c400008003c000000e0002000320005003700a2
:105c500060001000e080180002003b0001f02c0002
:105c60001a0037000004be006011b8006b09200064
:105c70000982cf00020039000882cf000441b00041
:105c8000694252000e00320008003b008281710020
:105c9000610164008904d1000884d3008b05e80009
:105ca0000442e800f9ff3a00050037000804440008
:105cb00089844c008b05e9000442e900fbff3a00af
:105cc000330407000af0a70001f0a0004f05be0052
:105cd0004f04be000000060003f0a200889fbe0033
:105ce0008a9fbe008c1f780011040700180433003f
:105cf0006450e1004f0032006420e10052003200a5
:105d000003826c0007003b000905d0000306d000a9
:105d1000820f54000c065d000200390002003200c0
:105d200089017800030678008582550004003d0053
:105d30000003fd008103fd008502ea008b8542001f
:105d4000840f720002003b0060001000e080180029
:105d50006011b8000005eb007a28e1000a00390064
:105d600006007800c75ddd00f707b2008780750088
:105d70002d003700828171000a0178006105600002
:105d80008180d1000080d3008502e900f9ff3b004b
:105d9000060440008784480002003b0060041400b1
:105da000e0841c000988a300070032008a8171008a
:105db00082817100610164008904d1000884d300ec
:105dc0008b05e800170037000978a30013003a009c
:105dd0000b00e000130034008b05e90008044400c8
:105de00089844c000a4474000978a3000d003a002d
:105df0000b00e000070034008b05e90008044400b4
:105e000089844c0001003a000b0020000978a300af
:105e1000f7ff32000001eb000200370082817100c1
:105e20000a017800da0307000cf0a70001f0a000d7
:105e3000d00337006420e10002003a00838f6c0039
:105e4000d00333000801be000200be00c9033700c2
:105e5000889fbe008a9fbe008c1f7800b403070095
:105e6000bb03330003866c006450e1002400320061
:105e70006420e100270032006150e100220032007e
:105e80006120e100210032008b854200eb07b10068
:105e90000134b800003ab8000804420089844a007e
:105ea000013ab8000030b8008880400009014a007b
:105eb00004003300000040008180480002014900d6
:105ec0008b05e900c909dd00830170000100320083
